:020000021000EC
:1080000000400020D10B02000D0C02000F0C0200FA
:108010000000000000000000000000000000000060
:10802000000000000000000000000000110C020031
:108030000000000000000000130C0200150C0200FC
:10804000170C020029AE01007D080200170C020087
:10805000170C020000000000D1090200170C0200FA
:10806000170C0200E503020041090200170C020090
:10807000170C0200170C0200170C0200170C02006C
:10808000170C0200170C0200170C0200170C02005C
:10809000170C020099E6010069F40100170C0200B8
:1080A000170C0200170C0200000000000000000086
:1080B00000000000000000000000000000000000C0
:1080C00010B5064C2378002B07D1054B002B02D0AE
:1080D000044800E000BF0123237010BDB020002041
:1080E000000000008C790200044B10B5002B03D077
:1080F0000349044800E000BF10BDC0460000000076
:10810000B42000208C790200164B002B00D1144BB8
:108110009D46402292029A1A924600218B460F46B3
:108120001348144A121A0EF021FB0F4B002B00D0FB
:1081300098470E4B002B00D09847002000210400E8
:108140000D000D48002802D00C4800E000BF0AF0E6
:108150009BFC200029000EF08FF80AF07FFCC0463F
:1081600000000800004000200000000000000000A7
:10817000A82000209C280020000000000000000033
:108180000122024B84B01A7004B07047C727002048
:108190000122024B84B01A7004B07047C627002039
:1081A00010B52F4C88B00090019105A821000393D1
:1081B000029202F081FF002105A80BF088FB00214C
:1081C00005A80BF084FB0378022B32D8012106A806
:1081D0000BF06EFB002106A80BF079FB092306A922
:1081E000037007A80BF041FB07A920000CF06CFB03
:1081F00007A80BF033FB002105A80BF068FB037800
:10820000002B01D1174A1370002105A80BF05FFB6A
:108210000378012B01D1134A1370002105A80BF03C
:1082200056FB0378022B01D10E4A137006A80BF0FF
:1082300015FB002105A80BF04AFB0378092B06D19A
:10824000084B1B787F2B02D80122074B1A70642041
:1082500000F042FE05A80BF001FB08B010BDC046BF
:108260003024002080200020C827002010B5040002
:10827000034B036040300BF066F9200010BDC04690
:108280001C690200F0B585B01F000AAB1B88060010
:10829000029115000393002F1BD028200EF017FA2F
:1082A0006B4604001989039BAAB200933B000BF0B4
:1082B000EAF8336821005B6830009847002806D050
:1082C00020000BF0F6F820000EF0F6F9024805B099
:1082D000F0BD0248FBE7C04616FCFFFF17FCFFFF9E
:1082E00013B50400012168460BF0E2FA002168464C
:1082F0000BF0EDFA6946047001A80BF0B6FA01A97B
:1083000006480CF0E1FA01A80BF0A8FA642000F08E
:10831000E3FD68460BF0A2FA13BDC04630240020EE
:10832000F0B5604887B000F0CFF95F4CC825200059
:1083300002F0C0FD0221200002F0A8FD03A80AF00F
:10834000C1FE04A80AF0F6FE02A80AF0D4FE10232B
:10835000564C00930122564B1D212000FFF792FF3F
:1083600064266D00534B1B78002B02D004A80AF042
:10837000FEFE514B1B78002B02D003A80AF0B8FE7A
:1083800003A80AF099FE002845D104A80AF0DDFEF2
:10839000031E4A4824D10BF0A3FB00281AD004A8DE
:1083A0000AF0DBFE10230B2200931B21444B20001C
:1083B000FFF768FF04A80AF0CAFE010005A80BF049
:1083C000ECF82A0005A93F4802F020F905A80BF0B7
:1083D000BAF835E03C480BF083FB0028DFD1E1E739
:1083E0000BF07EFB002802D003A80AF071FE36488D
:1083F0000BF076FB002802D003A80AF071FE1023D0
:108400000B2200931B21314B2000FFF73BFF03A8F9
:108410000AF049FED1E704A80AF04EFE002833D145
:1084200004A80AF090FE00280ED1033000F038FBBB
:10843000C1B204A80AF042FE012104A80AF040FEDD
:10844000300000F049FD8DE7214B1B78002B14D143
:10845000204905A800F072FF782205A9194802F00A
:108460003BF905A80BF06FF803A80AF01AFEFFF716
:1084700037FF300000F030FDE6E70021164B59567B
:108480000029DDDBC9B2D4E703A80AF00AFE070021
:1084900004A80AF006FE3900020002A80AF02CFE29
:1084A0008BE7C046CC200020182400209C2100200F
:1084B000A1810100C7270020C62700203422002008
:1084C00081810100BC2100205C22002091810100FB
:1084D000C8270020947302008020002010B5054CAE
:1084E000200000F039F8044A044920000EF0E8F8B2
:1084F00010BDC046CC2000200020002001850100D6
:10850000CA23144A9B0010B5C2501C330400C01883
:108510000BF019F8D0239B00E0180BF014F82000A2
:108520009130FF3001F00CFB20006930FF3001F08A
:1085300007FB2000F03001F085FE2000D03002F073
:1085400063FA2000643007F053FE201DFFF78EFE13
:10855000200010BDA86D02001423F0B5040093B0F4
:10856000009319221821043002F0ECFD22002500AE
:1085700026006432B435132110001092B83607F08B
:1085800043FE28000CF023FA00221E2130000BF0DD
:10859000B3FE2000D03002F057FA2200F0321192E0
:1085A0000621464A119801F071FE200000270123A0
:1085B00069301A0000971121FF3001F0CDFA200038
:1085C00091300097012302221A21FF3001F0C4FAF2
:1085D0002000B9301A2301210222FF3002F0F0FA04
:1085E000300001F0C5F8E4225200A050300001F044
:1085F0000DFBE6235B00E0500100E4222000520066
:10860000D130119BA2580095FF3001F04FFD2000A2
:10861000E13029001C22FF3002F02CFF192320003A
:108620000F93013B0E93013B0D93013B0C93013BD8
:108630000B93013B0A93013B0993013B0893013BD8
:108640000793013B0693013B0593013B0493013BD8
:108650000393013B0293013B0193F930013B082254
:1086600000930721013BFF300BF067FECA239B00FC
:10867000E018290003F010FFD3239B00E0181D2110
:1086800002F06EFBDD239B00E7501098277003215A
:108690000DF022FD23002200200009499C33A03266
:1086A0001C6011605760074A80305A610221012224
:1086B00008F040FA200013B0F0BDC0462469020063
:1086C0008B310200753102000123F0B5067891B0BC
:1086D00004001E4060D10300D0331800039300F063
:1086E000DDFA00F003FA28200DF0F1FF050010304C
:1086F0000AF0C5FF664B18202B600DF0E8FF07005D
:10870000644B0460082231000C300E930F960EF07B
:108710002DF80EA9381D08220EF00CF85E4BAF6044
:108720007B611223EE60AB802E626E62290003989B
:1087300002F0FEF8002805D028000AF0BAFE280052
:108740000DF0BAFF0123227854491343237023000C
:10875000B433180004930CF040F951490290049886
:108760000CF03BF900270690642000F0B5FB3D00BB
:108770003E0023006933FF33180005930BF0B0F976
:1087800000280BD1029B002B11D1069B002B0ED190
:108790004449454800F080FC11B0F0BD2000913004
:1087A000FF300BF09DF90028ECD0182EEADC2000F9
:1087B000653029B23AB2FF23FF30013500F03CFEAC
:1087C000EDB2322000F088FB0136052D02D10025E4
:1087D0000137FFB2029B192E06D0002BC9D02F49BA
:1087E000049802F0DBFD01E0002BF8D102980DF0B7
:1087F00063FF06980DF060FF2A492C4800F04CFCFE
:10880000CA239B00E3180793DD239B00E3580893DA
:10881000002B36D100F058F801000AA800F08EFDB8
:108820000AF038FD08900AF035FD6B460990198C66
:108830000CA80AF0A5FE099B0DA8190C0AF0A0FED1
:108840000DAA0CA90BA80AF0F7FE0DA80AF07BFEF2
:108850000CA80AF078FE01230BAA0AA90093079836
:10886000039B03F06FFE0BA80AF06DFE0AA80AF046
:108870006AFECC239B00E3580893DD23089A9B00F3
:10888000E2502100059AF031079804F055F870E79E
:10889000FD030000FD310200BD310200D173020072
:1088A000DC7302000020002008000020001C0020D3
:1088B000BFF34F8F024B034ADA60BFF34F8FFEE7DF
:1088C00000ED00E00400FA05F0B58DB005AF192207
:1088D000154938000DF02EFF0022144B05245A7163
:1088E00080225205566E01222500019402920393C4
:1088F0000199300008F010FB0800029908F086FA90
:10890000019B03996B430193029B361A6B430293BD
:10891000631E2C1B6C433C19225C1C1ECA54E7D1FD
:1089200008000DB0F0BDC046EC730200C92700205E
:10893000F0B597B018220021060010A80DF016FF20
:10894000132110A80DF007FD032110A80DF0D2FD92
:108950004C4B1B68002B00D10133DBB202934A4A17
:10896000012300210BA808F01FF8484B9E4200D9B4
:10897000002672B6464B64211D68464B30000793B3
:10898000052408F0CDFA60435030281808900A21D9
:10899000300008F0C5FA0A2108F0A8FB6143503105
:1089A0006918099130000A2108F0A0FB8023614377
:1089B0000024503169189B010A910193029B002BFE
:1089C0005DD0002500272E1F07AB9B190593032CB4
:1089D00003D1802300249B01019307AB5B592E4AEE
:1089E00003936300D318049300231900062058430F
:1089F000049A16187678B4466246039EB25C102636
:108A00009446049A105C62460641164202D0012048
:108A1000984001430133092BE8D1C9431F4B059A04
:108A2000090119401268039B934225D1312F23DCA1
:108A300000210BA80DF01FFEFA23159A1199DB00F7
:108A4000106801421BD0013B002BF9D1019B01347E
:108A50005B000193FA230137E4B25B009F42B6D179
:108A60000435102DAED1074B1B68002BA6D0029FFA
:108A7000013FFBB20293A1E7019B1943D9E7FFF73E
:108A800017FFC04648240020F0FF0000E703000065
:108A9000042000203B74020005740200F01F000057
:108AA000F0B500281BDD0F4C421E27681100002086
:108AB000BE09FB0F73407B403E097D087340BF0831
:108AC0007B406B40DB072B4301251F0040002B4000
:108AD0001843E940ECD18242E8D32760F0BD024858
:108AE000FCE7C0464424002017FCFFFFF8B5002334
:108AF000124C23600AF0C0FB002808D0042120009B
:108B00000AF0B6FB002801D00D4B2360F8BD01220E
:108B1000A12704250B4B0C491A602268FF0048600E
:108B20004E68002EFCD0DE591202013D3243002D6A
:108B3000F5D1226001225A60E8E7C04644240020B3
:108B4000ED5EBC0B00D00040FCD000400B4B70B57C
:108B50001C68002C10D0656D00F0ACFBA36C0029E4
:108B600001D1834206D820000AF0B9FB0449200055
:108B70000AF0A3FB2C00ECE770BDC0465024002097
:108B800070240020F0B593B007932A4B04AC1E6804
:108B9000049005910692002E4AD0274B25886788BD
:108BA0001C6800230293002C2ED0636D234803938E
:108BB000A36C9AB2A36C1B0C99B2854214D12048C5
:108BC000824211D1002B01D0B9420BD1029B002B64
:108BD00008D120000AF083FB1A4920000AF06DFB3F
:108BE00001230293039CDEE7002A01D09542F9D1CC
:108BF000002B01D0B942F5D120000AF070FB1149D9
:108C000020000AF05AFBEDE70F4BEB18012B0FD9B0
:108C100010233A00009329000C4B08A80AF033FCFB
:108C2000336808A99B683000984708A80AF041FCFF
:108C300013B0F0BD4C2400207C240020FE03000073
:108C4000FF0300007024002002FCFFFF858B010061
:108C500010B572B60B4B1C68002C08D020000AF02F
:108C60003EFB0023E364084B2000E36310BD62B6C3
:108C70005C200DF02CFD5C22002104000DF076FD3F
:108C8000EFE7C0467424002000400020024B187813
:108C9000012318407047C046CF270020F7B50600D3
:108CA000FFF7F4FF051E33D11A4C2660FFF7D0FF03
:108CB000194B1A4918600AF000FBFFF7C9FF184B5F
:108CC0001860184B4363184B8363206800280ED04C
:108CD000C027164E2A00330015490097FFF7D2FA35
:108CE000009733002A0013492068FFF7CBFA0C20C5
:108CF0000DF0EDFC0023838083710F4B03600F4B5D
:108D0000836000F0EFFA01230D4A11780B431370D2
:108D1000F7BDC0464C240020802400207024002091
:108D200078240020FC3F0020A5330200858B010041
:108D3000FF030000FE030000446902004D8B0100A8
:108D4000CF270020F7B506000D001700019300287B
:108D500002D100242000FEBD0029FAD0FFF778FFE1
:108D6000041EF6D0074B019A436306604560876096
:108D7000054B002A00D0054BA363054920000AF0EB
:108D80009CFAE7E7FC3F00206F3302008D330200BE
:108D900070240020024B1868434258417047C04677
:108DA00070240020002310B504499C006258002A5A
:108DB00001D00133F9E76050100010BD58240020A5
:108DC000002310B5044A99008C58844201D0013325
:108DD000F9E70020885010BD5824002010B5002469
:108DE000084BA200D058002802D003685B6898475F
:108DF0000134062CF4D1044B1B68002B00D120BF9A
:108E000010BDC0465824002070240020F8B5FFF79C
:108E10003DFF00281CD02A4D2C68E36CDA0718D5DA
:108E200002273B43E364274B1E680423F26C3000A7
:108E30001343F364636BF3630AF077FA3000716CE9
:108E400004F06FF92868C36C3B4201D004F0A3F929
:108E5000F8BD1D4F1D4E3A683168002A1ED12960A9
:108E60002A68914208D11B0706D52C60FFF7B6FF90
:108E70003B68002BFAD02B6029688C42E8D033681D
:108E8000994214D1124B4B63124B8B6320000AF0B2
:108E90004CFA2968626C4B6C20000DE0206DB842E2
:108EA00003D1606D002800D002002A60D8E79C4200
:108EB000ECD1002210004B6C04F0F2F8C8E7C04679
:108EC00080240020542400207024002078240020D6
:108ED000FC3F0020A533020070B50500FFF7D6FE69
:108EE000002803D128000DF0F9FA70BD0C4B1C6866
:108EF000E36CDB0706D5FFF7ABFE0A4B18600028D2
:108F000000D0040000F0D6F92D18A56420000AF066
:108F1000E6F9054920000AF0D0F9FFF777FFE4E70A
:108F2000802400205424002050240020F0B51E4B43
:108F30001E4F1C683B6885B006000391002B30D0A3
:108F4000FFF7A4FE00282CD0E36CDB070ED5FFF75B
:108F50007FFE174B051E186008D00AF0C0F91549AE
:108F600028000AF0AAF92C00FFF750FF039B20000D
:108F70001B043343A3640AF0B2F920000E490AF03F
:108F80009CF90E4B0024F318012B07D9C023009342
:108F9000039A0B4B31003868FFF774F9200005B0D5
:108FA000F0BD084CFAE7C046802400204C24002085
:108FB00054240020702400207C24002002FCFFFFA9
:108FC000858B010016FCFFFF10B5FFF75FFE002840
:108FD00009D0054C20680AF082F9044920680AF09B
:108FE0006CF9FFF713FF10BD8024002074240020CB
:108FF000F7B507000D0000282ED0FFF747FE002828
:109000002CD00724164E3068C36C1C4007D0154A7C
:10901000290038000AF07AF900242000FEBD04F08F
:10902000A2F802213268D36C1940019103D00321C8
:109030008B43D364F1E701242343D3642800B8476A
:109040003268D36C1900A143D164019C5B07E4D55D
:1090500028000AF093F9E0E7034CDEE7034CDCE775
:10906000802400207D33020017FCFFFF16FCFFFF69
:10907000020010B5014B12CB12C210BD8424002097
:10908000034B1A68034B1A607E225A607047C04631
:10909000042000208424002070B5114E3278022A6A
:1090A0001AD081421AD90C1A072C17D90D000323A4
:1090B00005432B4012D172B60A4DD2005051AA1866
:1090C00051608022A40812061443046032780132F1
:1090D000327062B6180070BD0348FCE70348FAE737
:1090E000D12700208C24002013FCFFFF17FCFFFF7A
:1090F00070B5134C06002378124D002B0CD1124989
:1091000012482B70FFF7C8FF114B984202D11E2066
:10911000FFF70EFC0123237000242B78A34209DD06
:109120000C49E300C91830000AF042F9002805D1C3
:109130000134F2E71420FFF7FBFB002070BDC046AE
:10914000D0270020D127002000380020A0280020B0
:1091500017FCFFFF8C24002070B5002819D0104B9D
:1091600010491C7800239C4216DDDA0055588542D0
:1091700010D28A18526882420CD9041F2368002B2F
:1091800002DC1E20FFF7D4FB802322681B0613435A
:10919000236070BD0133E6E71E20FFF7C9FBF8E747
:1091A000D12700208C24002070B5051E14DD0B4E45
:1091B0000B4C3368002B02D020680DF00AF8FA211E
:1091C00020680024074B89008361C46269433560CD
:1091D0000DF007F8200070BD0348FCE79C24002038
:1091E000CC2400209192010017FCFFFFF8B5114F2D
:1091F00006003D68002D0AD130200DF068FA040009
:1092000007F026F80C4BA5612360E5623C600B4D2E
:109210002B68002B09D110200DF059FA04000CF036
:10922000A1FF20002C600CF077FF3000FFF7BCFF9F
:10923000F8BDC046CC24002044710200C8240020A0
:10924000014B18687047C0469C24002070B50D4C37
:109250002368002B03D00C4B1B68002B02D1062087
:10926000FFF7C4FF20680CF06EFF02000749C31728
:109270000D684E685219734120680A604B600CF00B
:1092800068FF70BDC8240020CC240020A820002046
:1092900010B5FFF7DBFF0024054BA200D0580028D3
:1092A00002D003681B68984701340A2CF4D110BD22
:1092B000A024002010B5FFF7C9FFFA22034B92004B
:1092C00018685968002307F051FF10BDA82000203E
:1092D00010B5FFF7BBFF024B1868596810BDC046B8
:1092E000A82000200B4B10B51B680400002B03D0F6
:1092F000094B1B68002B02D10620FFF777FF0023E4
:10930000064A99008858002801D00133F9E78C50AB
:1093100010BDC046C8240020CC240020A02400207A
:10932000002310B5044A99008C58844201D00133BF
:10933000F9E70020885010BDA024002010B50400DB
:10934000002902D00B78002B03D1034B23602000AF
:1093500010BD0AF0FFF8FAE754690200F8B50400FE
:109360000E00150000290AD00B78002B07D0002A28
:1093700005D0080097B20DF039FA874203D90B4B9C
:1093800023602000F8BD681DFFF7B2FE20600AF0E0
:10939000A8FA23682A005F8023683100181D0DF0A9
:1093A000C9F923685D1900232B71EAE754690200AB
:1093B000014B03607047C0465469020010B5054870
:1093C000054C20600AF090FA044A054920000DF08F
:1093D00077F910BD54690200D0240020002000203D
:1093E00047350200084B73B51C680500002C0AD0F5
:1093F000010026680831082268460DF09BF90CCD63
:1094000031682000884773BDD4240020014B0360DD
:109410007047C0465C69020010B50400002903D102
:10942000044B0360200010BD016008000AF05CFAE4
:10943000F8E7C0465C69020030B500684488A14284
:109440000CDA8588AA4209DA002907DB002A05DB45
:109450005443401800198371002030BD0048FCE7D8
:1094600017FCFFFFF0B5070085B00E001D000029B6
:1094700021DD002A1FDD002B1DD0046863880393C3
:109480008B4200DD0391A3880293934200DD029298
:10949000002306340193019B029A93420EDA2900BD
:1094A0002000039A0DF046F93B68AD195B88E4187B
:1094B000019B0133EEE7024805B0F0BD0020FBE759
:1094C00017FCFFFFF8B504000D0016001F0000296F
:1094D00001DB002A02DA0E4B2360F8BD100048437E
:1094E0000630FFF705FE20600AF0FBF923685D8077
:1094F00023689E80002F06D03B0032002900200008
:10950000FFF7B0FFE9E720000AF00AF9E5E7C046F7
:109510005C690200F7B506000D1E03D1244B036001
:109520003000FEBD00200F000400010001903B78D8
:10953000002B1AD03022524294469C446246092A9B
:1095400011D90A2B0AD1019B241801330193A1429E
:1095500000DA2100002004000137E8E70028FBD0F2
:1095600001340020F8E70120F6E70127019A09B24B
:1095700012B230007F42FFF7A5FF39000A2033689E
:109580009A1D2C78002CCBD02300303B092B08D817
:10959000FB43DB173B4043431B19303B1F000135A6
:1095A000EFE7002FFBDB177001320F00F7E7C04633
:1095B0005C690200F0B5040089B006A80E000292B2
:1095C0001D00FFF755FD236802995A88914235DA4C
:1095D0009B889D4232DA1F2E30D9079B01939E4211
:1095E0002CDC0523002273430393069B0493039B07
:1095F00004999B18A03BCB5C00210593AE18029BFD
:10960000CF1823685888019087420EDA9888B042B4
:109610000BDDDB1910270F41019870431B180598CB
:109620000740781E87417F429F7101310529E6D1AD
:109630000132052ADBD1002009B0F0BD0048FBE76C
:1096400017FCFFFFF7B50468070063880E1E01933F
:109650001EDD994218DA0023063400933B68009A15
:109660009B889A4212DA019BA1199D1B2A002000B7
:109670000DF060F8601931000AF035F83B685B883E
:10968000E418009B0133E8E70AF04AF8002000E004
:109690000048FEBD17FCFFFF10B50548054C2060D3
:1096A0000AF022F9044A054920000DF009F810BD1E
:1096B0005C690200D824002000200020D936020076
:1096C00010B5054C012120000AF0F2F8034A0449C4
:1096D00020000CF0F5FF10BDDC240020002000204D
:1096E0005D3802000388074A10B50120934208D074
:1096F000834202D00020DB0703D41E20FFF718F9B5
:10970000002010BDFFFF00000048704716FCFFFF5F
:1097100010B53220FFF70CF9004810BD16FCFFFF12
:1097200010B5124C00230834828004604162022488
:1097300014220100837184720363838602813631AF
:109740000A78C360A243F13422400361436183611C
:10975000C36103620A70020040321370021DD38796
:10976000013343878387C38710BDC0467C690200ED
:10977000F0B5544F97B03B6806000593002B00D01E
:109780008BE006AC0B331C222121200001F050FAA3
:109790000EAD0B231D2222210AA801F049FA0B234A
:1097A0001B222321280001F043FA08200CF08FFF30
:1097B0000122059B110004900BF03AFC3A21300085
:1097C0000BF090F900281DD0A38812ADAB80A379CF
:1097D0005C20AB713C4B1293A3681493237B2B73D7
:1097E000637B6B73A37BAB730CF071FF042301935A
:1097F000363300932A00049B3100040002F03EF946
:109800003C604AE0322130000BF09AF900281CD06D
:10981000A38812ADAB80A3795C20AB712A4B129365
:10982000A3681493237B2B73637B6B73A37BAB7352
:109830000CF04DFF042301932E3300932A00049B68
:109840003100040002F0B8FADAE73C2130000BF0F6
:1098500032F900282CD0AB8812ACA380AB79A420BD
:10986000A371194B1293AB6814932B7B23736B7BFF
:109870006373AB7BA3730CF02AFF052305000293EF
:10988000013B0193383300932200049B310002F026
:1098900013F80E4B3D6044351D600C4B094C1868A5
:1098A000002802D021680AF089F9206817B0F0BDBD
:1098B00044200CF00CFF042204990400FFF730FF51
:1098C0009EE7C046E02400206C690200E4240020EA
:1098D000F0B56149C56885B08D4254DA03000222B3
:1098E00036331B78134059D104698C4264DA020084
:1098F00036321278520768D4426901920200019E02
:1099000040328E426FDA010036310978090774D48B
:10991000002B7DD113780293002B16D0060001276F
:10992000011DCB8F363601339BB2CB870396367839
:10993000BC46374000D188E01D2B06D963469E43C4
:10994000039B1E700023CB8713700AF017F8434A5D
:109950000723904276D94249043B8D4272DBC822EC
:109960000133920095426DDC023B8C426ADB013B85
:10997000944267DC01980433884263DB01339042F0
:1099800060DC00235EE0C822002352009542ABDD7C
:10999000030036331A7800239207A5D4012306006A
:1099A0001F00363632785408A7433C0002279C40FB
:1099B000BA432243327097E7C822520094429BDD9B
:1099C000020036321278520796D40600012236364B
:1099D00033789F08BA439700042293431A003A430E
:1099E0003270012388E7C821019E49008E428FDD35
:1099F00001003631097809078AD401000126363181
:109A00000B78DF08BE430827F600BB4333430B70D7
:109A10001378032B00D97DE70133DBB21370012BE0
:109A200003D10021031DD98774E7042B00D071E70F
:109A3000020036321178033B0B43137000230430CD
:109A4000C3870B33180005B0F0BD092B00D87CE7A5
:109A5000029BCF87013B77E770FEFFFFFF7002009C
:109A6000E0FCFFFF70B5C369C1681A68451D8AB084
:109A70000400EB7F114255D0002B58D1EB7F082B0F
:109A80000DD90122A379134209D11343A371A188EF
:109A9000130006A809F0FDFDFFF70CFC2062EB7F28
:109AA000012B23D80123A2791A421FD00025A188B7
:109AB000A571022202A809F0ECFDA31DDE7F012E94
:109AC00014D1FFF7F7FB2B00226A801A994100900E
:109AD0000191019BA188AB4203D1174B009A9A4296
:109AE00027D90123042206A809F0D3FD0322A37974
:109AF0001340012B14D1FFF7DDFB0023226A801AEB
:109B00009941994202D10D4B984209D90223A27979
:109B1000A1881343A3710522012306A809F0B9FD0A
:109B20000AB070BD0B2BA9D80133EB77A6E7013B38
:109B3000FBE733000322D6E7E7030000DB05000064
:109B400010B50400034B08330360FFF7E9FB200066
:109B500010BDC046B0690200F0B5070000250E0038
:109B6000040085B002930AAB1B78083703930F4BB0
:109B7000019208330360858085712900182238001E
:109B80000CF0F4FD039A310038000CF0E9FB019B66
:109B9000029AA380A31DE671DA77631D2562200077
:109BA000DD77FFF79FFB200005B0F0BDB069020034
:109BB0000048704716FCFFFF10B53320FEF7B8FED3
:109BC000004810BD16FCFFFF002310B50400838081
:109BD00083710D482164083020608020C000A0619E
:109BE000E0612062E3602000236163616362A3623D
:109BF000E36223636363A363E3636364110009F0B7
:109C0000B5FF200010BDC046C8690200F0B5534F33
:109C100097B03B6806000593002B00D08BE00B3318
:109C20001C22212106A80AAC01F002F80EAD0B237C
:109C30001D222221200000F0FBFF0B231B222321E9
:109C4000280000F0F5FF08200CF041FD0122059BE3
:109C5000110004900BF0ECF91D2130000AF059FFBF
:109C600000281DD0A38812ADAB80A3796020AB7112
:109C70003B4B1293A3681493237B2B73637B6B730F
:109C8000A37BAB730CF023FD0523019318330093E2
:109C90002A00049B3100040001F0C4FF3C604AE04C
:109CA0003C2130000AF063FF00281CD0A38812ADCD
:109CB000AB80A3796020AB71294B1293A3681493F6
:109CC000237B2B73637B6B73A37BAB730CF0FFFC69
:109CD00005230193373300932A00049B31000400CD
:109CE00002F00CF9DAE73C2130000AF0E4FE00282B
:109CF0002AD0AB8812ACA380AB79A420A371184BF7
:109D00001293AB6814932B7B23736B7B6373AB7BD6
:109D1000A3730CF0DCFC052305000293013B0193C7
:109D2000383300932200049B310001F0C5FD0D4B38
:109D30001D6044353D600B4B084A1B681068002BC2
:109D400000D0436417B0F0BD48200CF0C0FC0522E1
:109D500004990400FFF738FFA0E7C046E424002080
:109D60006C690200E024002082B0F0B50400EDB080
:109D70006420739372920CF0B1FB052210A81100BD
:109D800009F0D7FC974911A8FFF7C4FB002221ABCB
:109D90006CA91A605A609A600C339942F9D1192261
:109DA000002113A80CF0E2FCA0680AF09EFA00263D
:109DB0000B90FF21A06800F021FD8B4FA06800F000
:109DC0005DFB07960996884B9F4203D0874B9F42C5
:109DD00000DBFDE0A0680AF08AFAA56884491AA8A9
:109DE000FFF7ACFA78221AA9280000F075FC1AA82F
:109DF00009F0A9FB00267C4F0322099B6068013310
:109E00001A40099209F052FE0500606809F055FEFB
:109E10000022784B05929D4210DB013205922A0008
:109E2000C8320BDBAA22042192000591954205DC81
:109E300002220592C82D01DD013205920022069210
:109E4000984210DB012306930300C8330BDBAA23DF
:109E500004329B000692984205DC02230693C82830
:109E600001DD0133069310A809F05AFC002513AB5D
:109E7000EB5C012B08D160496B00CA185278C95CB1
:109E800010A8FF23FFF7D8FA0135192DEFD16B4643
:109E900018229A5E6B4610A81421595E099BFFF7A1
:109EA000CBFA002F01DB0F2E07D90023A068009307
:109EB00074301A0010A909F049FC01230893089B8B
:109EC00005995A004C4B9B189A1E12788A4226D14B
:109ED000013B1B78069A934221D1089A6CAB9B18E0
:109EE000663BFF3B0A931B78012B18D00C23079A83
:109EF000216853431D0000220CA809F061FE21AA2D
:109F00002B0094460CAA634423CA23C301220A9B54
:109F100001361A70079BF6B20133DBB20793089B38
:109F2000013308931A2BCAD164200CF0D7FA079B8F
:109F3000643F3FB2182B00D845E71A0021A91AA8A0
:109F40000AF04CF86A461DAB23CB23C21B68136092
:109F50001A991B9A1C9B206809F01AFEE568002DCF
:109F60000CD0264912A8FFF7E9F91C231AAA12A956
:109F700028000AF06BFD12A809F0E5FAA0680AF0C3
:109F8000B6F911A912A8A56809F0B3FB00221C4B71
:109F9000009212A901932800130000F00DFB12A8F3
:109FA00009F09AFBFA2080000CF098FAA0680AF0F9
:109FB0009EF90B99A06800F021FC11A809F08CFB18
:109FC00010A809F089FB6DB0F0BC08BC02B01847BE
:109FD000002F02D00F2E00D00EE7A06800F04EFA3E
:109FE0000AE7C0461B7602008C3C0000D18AFFFFC6
:109FF0006076020058FDFFFF807602007576020051
:10A00000DC050000F0B587B001930EAB1B8806009D
:10A0100003930D9B0D000093019B02920C9F002B5C
:10A020003CD0002F02D1009BDB0737D528200CF055
:10A030004EFB0400103009F022FB029B1820258003
:10A0400063800CF044FB0500009B08220593019BF4
:10A05000002103600C3004970CF088FB082204A94F
:10A06000281D0CF067FB0E4B02226B610023039945
:10A07000E3602362636233680A43A560A2805B6881
:10A08000210030009847002806D0200009F011FA7E
:10A0900020000CF011FB034807B0F0BD0248FBE7BD
:10A0A000013C020016FCFFFF17FCFFFF70B58CB0EF
:10A0B0008360109B01604260C3600400184918006F
:10A0C0000AF08BFC051E14D001001C22103105A8DB
:10A0D0000CF030FB6A4608AB43CB43C21B681360ED
:10A0E00020680599069A079B09F052FD28000CF09C
:10A0F000E3FA0C4B186800280ED00B4A05AB05920A
:10A1000000220692C03202926A4622CB22C223006B
:10A1100003220521FFF776FF20000CB070BDC0467A
:10A1200075760200D4240020699D0100F0B504007A
:10A1300085B0637A9C46002B04D1200009F06CFFA7
:10A1400005B0F0BDA37A266F01931023019AF35650
:10A1500000259B1801229A402900F368039202937C
:10A16000029BAB4231DDB368019A6B439B18726965
:10A170005B00E77AD3181A785878E379012F14D165
:10A180005F1E3F1A10003A005B004343606F821865
:10A19000D3189B79634500DD6346627B1A4202D087
:10A1A0000123AB4019430135DAE7022F05D15F1EC9
:10A1B000BA1A277A013F381AE6E7032FE4D1277A43
:10A1C000013FBF1A02003800DEE71123C943F356EE
:10A1D000606C994023691940039B19430CF04BFABA
:10A1E000A27B072AACD8637B0C495B006373531CCA
:10A1F000DBB290004158A373022A03D808000CF088
:10A2000062F996E7064B2000236300236363054B46
:10A21000E462236414300BF0E4FF91E7F469020078
:10A220002DA101000340020010B50400044B03609F
:10A230000BF0CFFF200006F021F8200010BDC04633
:10A240004471020010B504000E4B08330360FFF7A1
:10A2500067F82000743009F03FFA2000603009F000
:10A260003BFA2000583009F06EF92000503009F018
:10A270006AF92000044B14306361FFF7D5FF20001A
:10A2800010BDC046146A020078710200F8B50025BE
:10A290000400324B8580083303608571143016004A
:10A2A0000F0005F0D5FF20002D4BE56263612564AA
:10A2B0005030FFF77DF820005830FFF779F8200084
:10A2C0006030FFF7A3F820000423F25E33682667AE
:10A2D000590009B2743009F02CFA3368226FE37127
:10A2E00073680126237210236581A7802561D356E8
:10A2F00091685918994204DD3000984001330543B4
:10A30000F8E711230120D356D1685918994206DD88
:10A3100002009A402669013332432261F6E7142095
:10A320000CF0D5F9226900212A430123060006F02A
:10A330003BFBFF23220063720133A38100234832D9
:10A340006664A37320001370A366FEF7CBFF01239E
:10A35000A27920001343A371F8BDC046146A02001D
:10A3600078710200F0B5437A85B00400002B04D167
:10A37000200009F051FE05B0F0BD0122837A1100E2
:10A380009C461023066F0025F356039263449940C0
:10A3900002912900F3680193019BAB422CDDB36865
:10A3A00072696B4363445B00E77AD3181A78587874
:10A3B000E379012F10D15F1E3F1A10003A005B00B5
:10A3C0004343606F8218D3189B79002B02D0039B04
:10A3D000AB4019430135DFE7022F05D15F1EBA1AE2
:10A3E000277A013F381AEAE7032FE8D1277A013F9D
:10A3F000BF1A02003800E2E71123C943F356606C2C
:10A40000994023691940029B19430CF034F9667A8C
:10A41000B31EDBB2FC2B14D8FEF712FF0B4B05006A
:10A42000236300230A4863630A4BFF21E462236429
:10A43000704306F075FD29004143200014300BF0F5
:10A44000D0FE637A012B00D995E791E7194002000D
:10A45000B6030000034002001FB5012381881A00E3
:10A46000684609F016F9012303491A00684609F005
:10A4700010F905B000BDC046FE0300001FB5030083
:10A4800048331A780400002A0DD000221A700123E4
:10A4900081881A00684609F0FCF8012304491A0073
:10A4A000684609F0F6F82000743009F039F91FBD4C
:10A4B000FF03000010B548300378002B06D0037866
:10A4C000012B03D00121024808F048FF10BDC0460F
:10A4D000FF03000010B501210400062008F03EFF34
:10A4E000064B984208D148342378002B04D02378B7
:10A4F000012B01D020BFF7E710BDC04616FCFFFFBF
:10A5000070B50600141E19DB050048352B78002BAA
:10A5100002D02B78012B13D1002330001A007430A5
:10A52000FFF748F8002C07D033004A331C80002482
:10A5300007234C3634802B70200070BD014CFBE7A4
:10A54000014CF9E717FCFFFF12FCFFFFF8B51700FD
:10A550000A68050052880B00012A09D10021180061
:10A5600009F080F8002201002800FFF7C9FFF8BDBC
:10A57000002F19DD060048363278002A02D03278E2
:10A58000012A13D12A00002428005C32190014800B
:10A59000583009F042F82B004A331F8003234C3512
:10A5A0002C8020003370E2E70148E0E70148DEE755
:10A5B00017FCFFFF12FCFFFF73B5079C0500002C82
:10A5C0001CDB060048363078002802D0307801289D
:10A5D00016D106981BB2C0B20090280012B2743097
:10A5E00009F0B4F8002C07D02B004A331C8000245B
:10A5F00007234C352C803370200076BD014CFBE7DF
:10A60000014CF9E717FCFFFF12FCFFFFF7B505004F
:10A610000E00171E26DDFFF74DFF2B0048331C7878
:10A62000E4B2002C20D133685B88012B09D12100D2
:10A63000300009F017F8220001002800FFF760FF42
:10A64000FEBD310001A808F0E0FF3A0001A9280092
:10A65000FFF77CFF01A808F076FF2800FFF73AFF1C
:10A660002000EDE70148EBE70148E9E717FCFFFFB1
:10A6700011FCFFFFF0B587B00D9C06000F000292A1
:10A680000393002C20DBFFF715FF330048331D78C0
:10A69000EDB2002D1AD1390005A809F02AF80C9B5B
:10A6A00001940093029A039B05A93000FFF784FFF1
:10A6B00005A809F011F8002C03D03000FFF70AFFBD
:10A6C0002C00200007B0F0BD014CFAE7014CF8E780
:10A6D00017FCFFFF11FCFFFFF8B50400171E1DDD7E
:10A6E000060048363378002B02D03378012B17D17F
:10A6F0002200E3795632013B13702300002520002D
:10A7000054331D80503008F088FF23004A331F80E7
:10A71000022328004C3425803370F8BD0148FCE743
:10A720000148FAE717FCFFFF12FCFFFFF8B5040031
:10A73000171E2DDD060048363278002A02D0327806
:10A74000012A27D15D42069BFF331FD16B1D2200DA
:10A750001BB2643213802300200066331D7060300A
:10A7600008F0CFFF230000226C331A70954200D00E
:10A770003D0023004A331D80079B00205A1E934151
:10A78000013F4C34053327803370F8BD069BDEE76C
:10A790000148FAE70148F8E717FCFFFF12FCFFFF4A
:10A7A000F0B587B005000F00161E03931EDDFFF7FE
:10A7B00081FE2B0048331C78E4B2002C18D13900FC
:10A7C00005A808F096FF0D9B320001930C9B05A98C
:10A7D00000932800039BFFF7A9FF05A808F07CFF62
:10A7E0002800FFF777FE200007B0F0BD0148FBE727
:10A7F0000148F9E717FCFFFF11FCFFFFFF2902D812
:10A800004172002070470148FCE7C04617FCFFFF7B
:10A8100013B5040004A80078009020000BF007FD99
:10A82000002801D1207516BD0048FCE70EFCFFFF93
:10A8300013B5040004A80078009020000BF0DFFCA2
:10A84000002801D1207516BD0048FCE70EFCFFFF73
:10A850007FB50D0011000F226A4404001E1E117006
:10A8600016D0089B002B13DD012329000093FFF76E
:10A87000DFFF002802D0074804B070BD0090089B9D
:10A88000320029002000FFF7C3FF0028F4D0F2E7D0
:10A890000148F1E70EFCFFFF17FCFFFFF7B50700CB
:10A8A0000D1E3FD00023022604690193002C35D0F1
:10A8B000AA88A3885340334204D1324204D1AB88E2
:10A8C000334226D0646AF1E7A968A0680AF095FBD4
:10A8D0000028F4D02B88002B02D022889A42F1D194
:10A8E0006B88002B02D062889A42EBD1EB68E26859
:10A8F000934201D0002BE5D17B68002B01D02000D2
:10A900009847A288084B1343A380019B013301930E
:10A91000D8E7A368AA689342D4D1DBE7019B200063
:10A92000002B00DC0148FEBD0080FFFF17FCFFFF8D
:10A93000F0B5060085B00D1E5DD001270469002C1E
:10A9400026D00221AA8800230A4202D0A3885B08ED
:10A950003B40226829688A4214D1A068A968002B6C
:10A960000ED00AF04AFB00280CD0EB68E268934254
:10A9700008D1A3881AB2002A06DB204805B0F0BD32
:10A980008842F2D0646ADAE75B045B0CA380F4E7E8
:10A9900030692A88002807D13561012318496846A3
:10A9A00008F077FE0020E9E7010003001C889442CC
:10A9B00006D25C6A1900002C0DD02300F6E72300B4
:10A9C0001C88944207D15F886C88A74203D85C6AD0
:10A9D0001900002CF3D1884209D10B889A4204D384
:10A9E00005D148886B88984201D96962D4E74B6ADF
:10A9F0006B624D62D1E70348C0E7C04616FCFFFF1B
:10AA0000FD03000017FCFFFF064B10B51A00040001
:10AA100008322C33026083600830FEF7D1F9200041
:10AA200010BDC0462C6A020008B4024B9C46083890
:10AA300008BC604709AA010008B4024B9C460838CC
:10AA400008BC6047614402000C4A002311002C320C
:10AA5000083110B543608381837382600361436171
:10AA60008361C383016004000830FEF79BF9044B47
:10AA70001A68002A00D11C60200010BD2C6A020058
:10AA8000D4240020F7B50E00012504690192002CA2
:10AA900036D0238832889A4201D0002B23D1638894
:10AAA00072889A4201D0002B1DD1FEF7EFF80123E6
:10AAB000002806D0C022A3881340C03B5A4253410D
:10AAC000DBB2019A934219D1A7883BB2002B15DB68
:10AAD00010223100A0180BF02DFE40231F4204D09D
:10AAE000200009F0C6FC646AD1E7FEF7CFF8002821
:10AAF000F6D021000348FEF77BFAF4E70025F2E7E1
:10AB00002800FEBD7344020008B4024B9C4608387E
:10AB100008BC6047FB450200F0B587B001930EAB5F
:10AB20001B88060003930D9B0D000093019B02926E
:10AB30000C9F002B3CD0002F02D1009BDB0737D5A8
:10AB400028200BF0C4FD0400103008F098FD029B93
:10AB50001820258063800BF0BAFD0500009B0822B9
:10AB60000593019B002103600C3004970BF0FEFD60
:10AB7000082204A9281D0BF0DDFD0E4B02226B619B
:10AB800000230399E3602362636233680A43A5608C
:10AB9000A2805B68210030009847002806D0200082
:10ABA00008F087FC20000BF087FD034807B0F0BDDC
:10ABB0000248FBE73546020016FCFFFF17FCFFFFCB
:10ABC000F0B50400160000258380164A164B8571E7
:10ABD0000260218146810573186889B08C46A842BD
:10ABE0001DD0124A05950492C02202926A4604AB17
:10ABF00082CB82C223002A006146FFF78DFFC0226C
:10AC0000094B0A49186802926A46069106AB0795F5
:10AC100082CB82C223002A003100FFF77DFF200093
:10AC200009B0F0BD706A0200D42400205F47020022
:10AC300030B5002403730123034D847105608180C6
:10AC400082734373846030BD6C69020070B5837990
:10AC50000400DB0702D580680BF02EFDA3799B076B
:10AC600002D5A0680BF028FDA3795B0707D5A023C8
:10AC70000021144ADB00D150A0680BF01DFDA37920
:10AC80001B0708D5A568002D05D028000AF026FA74
:10AC900028000BF011FDA379DB0605D5A06800287C
:10ACA00002D00368DB6898476023A2791A4205D076
:10ACB000A068002802D003685B6898470023A3605F
:10ACC000A37170BD00700040F7B50126037B04003E
:10ACD00033422AD0612385791D4017D1FFF7B6FF93
:10ACE00018200BF0F4FC0E230700E3561822009303
:10ACF000637B290001930BF039FD019A009938001C
:10AD00000BF02EFBA379A7603343A3716023A279D4
:10AD1000A0681A4202D00BF0D8F9FEBD4369406822
:10AD20001B681840431E9841F7E70148F5E7C04605
:10AD300016FCFFFF10B50124837941731C4004D039
:10AD400080680BF0D7FB002010BD6022134203D0B7
:10AD500080680BF0C1F9F6E70048F5E716FCFFFF45
:10AD600070B5040000250C4B0E00083385808571FA
:10AD700003602100183009F0A3FD200021002030DD
:10AD800009F0D1FD054BA680E5802572E5602561BF
:10AD9000656120001C6070BD806A0200E82400200C
:10ADA0008379DB0702D5C160002070470048FCE7CB
:10ADB00016FCFFFF8379DB0701D5C06870470148A7
:10ADC000FCE7C04616FCFFFF70B545690400002D86
:10ADD00022D0037A032B21D8FFF7ECFFA8622C20A6
:10ADE0000BF075FC2C22002105000BF0BFFC0022AB
:10ADF00063695A622369934208D163692361002021
:10AE0000237A65610133237270BD13005A6A002AE8
:10AE1000FBD162695A62F2E70148F5E70148F3E7BE
:10AE200017FCFFFF13FCFFFF144B70B55A68144C5E
:10AE3000002A03D000225A600132A2601A69002A57
:10AE400017D0002119618023DB000E4DE3582868DC
:10AE5000012B0FD1A923DB00E1584942FFF7A0FFE6
:10AE60002868FFF7B1FF2B685A69074BE2500123AE
:10AE7000A36070BDFFF794FFF9E7C046FC100040E7
:10AE800000100040E82400200405000070B5050013
:10AE90000C0008F0F1F9002804D1034A034BEC71CF
:10AEA000D45070BD0248FCE70010004024050000AB
:10AEB00016FCFFFFF8B5837905000020DB0768D496
:10AEC00008F0DAF9002865D16E69002E08D12C301F
:10AED0000BF0FDFB04002C2231000BF047FC6C61F1
:10AEE0006B69002B58D000222C4B01215A60802224
:10AEF000D20511605A68002AFCD00622284B294C42
:10AF00009A56294B0026E2500722043BE2500833B0
:10AF1000E650264A264B2800E250E979FFF7B6FFB3
:10AF200001220821234B2448E6500433E250234BEE
:10AF3000234FE1500433E05002232248235022489B
:10AF40002750224F043827501827214827506F696F
:10AF500020482750C120800021501F498538FF38E4
:10AF60000B500B608021890060580E3303436350FF
:10AF70001A4B5E6062605A68002AFCD000260127E6
:10AF80001E612800A760FDF70DFF3000AB791F435D
:10AF9000AF71F8BD1248FCE71248FAE7FC00004028
:10AFA0003D770200001000400C05000074696275D6
:10AFB0001C0500002C050000200004021405000000
:10AFC000FFFF0000340500003C05000021100100D7
:10AFD000540500000405000000E100E0FC10004002
:10AFE00016FCFFFF13FCFFFF03000069002809D0D7
:10AFF0000221054AD167426A1A611A7A013A1A7225
:10B00000024B19607047C04604E100E000E100E037
:10B0100070B504000D0008F02FF900283AD1002D7A
:10B020003AD02B78232B37D802221C4B1C49DA67E5
:10B030001C4B013A58610A615A69002AFCD0002071
:10B04000194A8D5058600130086058680028FCD0BB
:10B05000002018610130886018690028FCD0606900
:10B06000885000225A6101320A615A69002AFCD0D4
:10B0700000225A6001324A605A68002AFCD000203F
:10B08000186101238B60C0210222084B49005A50ED
:10B090001A6070BD0648FCE70648FAE704E100E0E4
:10B0A00000100040FC1000400405000000E100E03A
:10B0B00016FCFFFF17FCFFFF37B54C680500002C9E
:10B0C00004D10C4908F0D1FB28003EBD636A01A8F9
:10B0D0004B602278211D033AA36A08F0F2FB20009E
:10B0E0000BF0EAFA01A9280008F0BFFB01A808F05C
:10B0F000B5FBE9E7DC24002030B505008DB0002960
:10B1000012D0232A10D801ACD31C002023700123B5
:10B11000A07002A86370E3700BF00CFB210028689C
:10B12000FFF776FF0DB030BD0048FBE717FCFFFFCF
:10B1300010B5002903DB024B19600BF0C8F810BDF5
:10B14000EC24002070B504001E0004AB1D7805F04F
:10B15000C7F820000E4B40302360FEF729F923008A
:10B1600001364C33013522001E701D730023E1218E
:10B170004E32A3646365138053809381D381013B76
:10B18000200063644902FFF7D3FF200070BDC04672
:10B190001C690200F7B580277F053D697C6908229C
:10B1A000113C6C430600210068460BF0C3FA104BBB
:10B1B000009A9A4219D000930023019379693000D4
:10B1C0001339694309F0C4FB019A0099300009F072
:10B1D000D7FB2100300009F0BBFB7969AB081339BC
:10B1E00069432200300009F0BDFB0198FEBDC04656
:10B1F000FECA0000F0B50D00A9B00D92002130226A
:10B20000060010A80B930BF0B1FA28000BF0EEFA31
:10B21000431C0C93102B00D9B5E00B9B202B00D9BD
:10B22000B1E02900300009F0D8FB071E50D12900F9
:10B230000C9A10A80BF07EFA0D990B9A14A80BF03B
:10B2400079FA80235B051A695F690C92113F7A4392
:10B2500030005D690B92FFF79DFF30220021040052
:10B260001CA80BF083FA290000270C9B13395943C3
:10B27000300009F06DFB0D9730257D430B9B0833A3
:10B28000ED18A74242DA290030221CA80BF052FA2E
:10B2900010A91CA80BF0A0FA002827D13C493000C7
:10B2A00022000E910F9409F06BFB6A46099513ABCF
:10B2B00023CB23C223CB23C223CB23C23000129B38
:10B2C0001099119A09F06AFB01230D930137D3E716
:10B2D00010300B9A0D990BF01EFA040038000BF099
:10B2E000EBF9002CA3D1200029B0F0BD6A460995E6
:10B2F0001FAB23CB23C223CB23C223CB23C23000DB
:10B300001C991D9A1E9B09F049FBDFE7E54330239A
:10B31000ED1725405D430B9B08355D190D9B002BF8
:10B320001DD10C9B3021981E05F070FDA0422CD041
:10B3300017490134300022000E910F9409F020FBD0
:10B340006A46099513AB23CB23C223CB23C223CB5D
:10B3500023C230001099119A129B09F01FFB0B9920
:10B36000300009F0F5FA80235B0559690C230C9A2B
:10B37000133963434A430233110030000B9A09F03A
:10B38000F1FA0024AFE7034CADE7034CABE7C0464E
:10B39000FECA000017FCFFFF13FCFFFF8023F0B57F
:10B3A0005B051A6995B003925A6905910399113AA0
:10B3B00051435D69039B133D040002915D43FFF718
:10B3C000E9FE061E3BD0002730220021083508A8E0
:10B3D00001950BF0CBF90199200009F0B9FA049717
:10B3E00030237B43029D0835ED18B7421FDA290050
:10B3F000302208A80BF09EF9059908A80BF0ECF98B
:10B4000000280AD11949721E20000691079209F0FE
:10B41000B7FA012304930137E2E70C23019A2900CC
:10B42000200009F09FFA019B30330193F3E7049B5E
:10B43000002B06D10D493200200009F0A1FA0C487A
:10B4400012E00299200009F083FA80235B05596914
:10B450000C23039A13394A4373431100200002332B
:10B46000029A09F07FFA002015B0F0BDFECA000074
:10B470000CFCFFFF70B50400A280FA220023080034
:10B480000C49920008312160A3716061E260A36001
:10B490006382094909F0A1FA051E09D001002000C4
:10B4A0001031022212300BF045F928000BF004F99C
:10B4B000200070BD986A0200B276020030B5022505
:10B4C000837987B004002B4204D1FDF76BFCA3798C
:10B4D0001D43A571200009F0CAFA00281CD06B4654
:10B4E000DD1C280009F0BAFA2B78002B17D001A830
:10B4F00009F0B2FA0321019AD3170B409B189B1055
:10B500002382FDF7D7FEE368A18818180123A06005
:10B510001A0002A808F0BDF8002007B030BD0122D3
:10B52000064B1A60064A51680029FCD00021516080
:10B53000044A1268019201225A60DBE700C0004011
:10B54000FCC0004008C50040022802D10122014B86
:10B550001A707047D227002070B5064C050023787A
:10B56000002B04D1044802F0FFFA012323702800C5
:10B5700070BDC046D327002049B5010070B50C004E
:10B5800007F07AFE002810D00023144DA40A2B7077
:10B59000200009F080FA002803D00A200AF09EFF5C
:10B5A000F6E72B78002BFCD070BD02210C4B0D4A26
:10B5B00099508021C90008005D58002DFCD0A121C0
:10B5C000C9005C5019580029FCD0002199508021F5
:10B5D000C9005A58002AFCD0E6E7C046D22700200E
:10B5E00000E0014004050000F8B50C0015001E0045
:10B5F00007F042FE002811D00023174F3B703200A5
:10B600002900200009F045FA002803D00A200AF09A
:10B6100065FFF4E73B78002BFCD0F8BD01210F4813
:10B620000F4B844619508021C9005A58002AFCD07B
:10B6300080270022FF00964207DD91006858605085
:10B64000D9590029FCD00132F5E7002261465A5051
:10B65000DA59002AFCD0E0E7D227002004050000D8
:10B6600000E0014008B4024B9C46443808BC6047E7
:10B670009B4A0200FA21F8B50389C9000400594326
:10B68000324809F0D0FCFA21890005F0BFFB304FA9
:10B690002081A17A380009F0C6FC2300260025008D
:10B6A00022894C33A072A0361A808C353178002361
:10B6B0002A22286808F028FE002801D02548F8BD75
:10B6C00031781F235B22286808F01EFE0028F5D180
:10B6D000317820235C22286808F016FE0028EDD17E
:10B6E000317801232C22286808F00EFE0028E5D1CD
:10B6F000317801232D22286808F006FE0028DDD1CC
:10B70000317801232E22286808F0FEFD0028D5D1CB
:10B71000A17A380009F082FC3178C3B20E22286881
:10B7200008F0F2FD0028C9D1FA2123898900594384
:10B73000064809F073FC01230343DBB231782A2267
:10B74000286808F0E1FD0028B9D0B7E7B86A020020
:10B75000B06A02000EFCFFFF08B4024B9C4644385E
:10B7600008BC604775B60100074B10B51A0004000D
:10B7700008323C3302604364443008F0C5F92000CD
:10B7800008F0EEF8200010BD186B020008B4024B60
:10B790009C46443808BC604769B7010008B4024BB6
:10B7A0009C46443808BC6047A54A0200F0B5042511
:10B7B00083798BB004002B4204D1FDF7F3FAA3790F
:10B7C0001D43A57120009030FFF77EFA0026B0429D
:10B7D0000FD12300A033197820000C2307AD00936C
:10B7E0008C302B0001220068FFF732F8061E03D0D0
:10B7F0002C4E30000BB0F0BD0A2304AA9B182A7807
:10B800005A706A781A700022985EAA785A70EA789C
:10B810001A700022995E03912A795A706A791A7017
:10B8200000229F5EAA795A70EA791A7000215A5E46
:10B8300004922A7A5A706A7A1A7000215A5E059226
:10B84000AA7A5A70EA7A1F251A7000229B5EA27AA1
:10B8500003999C46514349425043CB172B407A43AE
:10B860005B185B11A361C3172B401818D3171D4039
:10B870006423AD18059A5B425343A3676423614672
:10B88000049A40115A434B43E2676D11221DE06157
:10B8900025622000D36708F0DCF82000443008F06F
:10B8A0003AF9A6E70EFCFFFF08B4024B9C46443869
:10B8B00008BC6047ADB70100F7B51E00040008AB37
:10B8C0001B881500019309AB00911A8831000AAB5F
:10B8D0001F88FDF725FF20003A0031004430FEF7B5
:10B8E00073F9134B20001A003C33636423000832C1
:10B8F0002260009A8C331A60AB8890308380AB79D9
:10B90000019A83710B4B03210360AB6883602B7B2F
:10B9100003736B7B4373AB7B83732300A0331A8069
:10B92000FFF708FA2000FFF7A5FE2000FEBDC04685
:10B93000186B02006C690200F8B5FA260189B6009E
:10B9400004007143264809F06EFB310005F05EFAF1
:10B95000244F2081A17A380009F065FB2500A072F0
:10B960005835297800232A22606C08F0CDFC002885
:10B9700001D01D48F8BD297810232B22606C08F0F7
:10B98000C3FC0028F5D1297801232D22606C08F032
:10B99000BBFC0028EDD1297801232E22606C08F031
:10B9A000B3FC0028E5D1A17A380009F037FB2978EB
:10B9B000C3B20E22606C08F0A7FC0028D9D12189FF
:10B9C0000748714309F02AFB01230343DBB22978BE
:10B9D0002A22606C08F098FC0028CBD0C9E7C0464A
:10B9E000806B0200786B02000EFCFFFF10B50400B4
:10B9F000034B0833036007F0B3FF200010BDC046BF
:10BA0000E06B02007FB50425837904002B4204D14A
:10BA1000FDF7C8F9A3791D43A57120004830FFF751
:10BA200053F90025A8420DD1230058331978062375
:10BA300002AE009301223300606CFEF709FF051E81
:10BA400003D00D4D280004B070BD02230021042056
:10BA5000F356A27ADB00715630565343C000C9003A
:10BA6000514342435B42A3612368E16122629B6AC6
:10BA700020009847E6E7C0460EFCFFFFF8B504003B
:10BA8000150006AA168807AA0F0012881900FDF7EC
:10BA900047FE0F4B6764083323602300AA884833AE
:10BAA0009A80AA7920009A710A4AA264AA6822653B
:10BAB0002A7B1A736A7B5A73AA7B9A730023A37139
:10BAC000230058331E80FFF737FF2000F8BDC04623
:10BAD000E06B02006C69020010B50400034B0833F0
:10BAE000036008F011F8200010BDC046746C02001D
:10BAF000F0B507005C3787B00400397800231022C6
:10BB0000806C08F001FC0326002802D01F4807B013
:10BB1000F0BD0F2502ABED18012339780822009300
:10BB2000A06C2B00FEF794FE184B9842EED02B78B9
:10BB3000334203D06420FDF7CFF9EAE7FA262189E2
:10BB4000134DB6007143280009F06DFA310005F07D
:10BB50005DF920813978A0231122A06C08F0D4FB74
:10BB60000028D3D1A36C21890393714328003F7827
:10BB700009F054FA01231843C3B210223900039884
:10BB800008F0C2FB0028C2D0C0E7C0460EFCFFFF91
:10BB9000146C020070B50825837986B004002B422E
:10BBA00004D1FDF7FFF8A3791D43A57120004C30A7
:10BBB000FFF78AF8061E0DD023005C3319780623A0
:10BBC00004AD009301222B00A06CFEF741FE061E7F
:10BBD00003D0134E300006B070BD0E232A786B449C
:10BBE0005A706A7820001A700022995E64224A43D3
:10BBF000A263AA785A70EA781A700022995E6422C9
:10BC00005242514361632979597069791970002151
:10BC10005B5E5A432368E2631B6A9847DAE7C046D3
:10BC20000EFCFFFFF8B50400150006AA168807AA47
:10BC30000F0012881900FDF7C7FF0D4BA7640833EA
:10BC400023602300AA884C339A80AA7920009A7135
:10BC5000084AE264AA6862652A7B1A736A7B5A738F
:10BC6000AA7B1E829A73FFF743FF2000F8BDC046EF
:10BC7000746C02006C690200F7B5FA250189204F47
:10BC8000AD0004006943380009F0CDF9290005F042
:10BC9000BDF8A17A20811B4809F0C5F92600636C24
:10BCA000A072009321895836337869433800019394
:10BCB00009F0B4F907230343DBB22022019900986D
:10BCC00008F022FB002801D00F48FEBD3178102378
:10BCD0002222606C08F018FB0028F5D1A17A0948EF
:10BCE000656C377809F09AF980235B420343DBB235
:10BCF00023223900280008F007FB0028E5D0E3E7FD
:10BD0000A86C0200A06C02000EFCFFFF10B504003E
:10BD1000034B0833036007F023FE200010BDC0462C
:10BD2000186D0200F0B50425837985B004002B421C
:10BD300004D1FDF737F8A3791D43A57120004830E1
:10BD4000FEF7C2FF061E0DD02300583319780623D4
:10BD500002AD0093A8222B00606CFEF779FD061E51
:10BD600003D0144E300005B0F0BD1F200023EA5E62
:10BD7000D31703409B180222A95E5B11CA17024029
:10BD8000521804216F5E5211F9170140C919491167
:10BD90002B806A80A980A07A4343424341435B429F
:10BDA000E36123685242A26121629B6A20009847A6
:10BDB000D8E7C0460EFCFFFFF8B50400150006AA40
:10BDC000168807AA0F0012881900FDF7A9FC0F4B6F
:10BDD0006764083323602300AA8848339A80AA79CD
:10BDE00020009A710A4AA264AA6822652A7B1A7303
:10BDF0006A7B5A73AA7B9A730023A371230058337A
:10BE00001E80FFF739FF2000F8BDC046186D020004
:10BE10006C690200F7B5FA2504000189134EAD00E4
:10BE20006943300009F0FFF8290004F0EFFF270014
:10BE3000A36C208100935C373B7881B2694330006A
:10BE4000019309F0EBF86022C3B20199009808F061
:10BE50005BFA002801D00648FEBD39780123622232
:10BE6000A06C08F051FA0028F6D0F4E74C6D0200FF
:10BE70000EFCFFFF10B50400034B0833036007F00E
:10BE800043FE200010BDC046746D02007FB508253A
:10BE9000837904002B4204D1FCF784FFA3791D436E
:10BEA000A57120004C30FEF70FFF051E0DD02300BA
:10BEB0005C331978062302AE0093E8223300A06CAD
:10BEC000FEF7C6FC051E03D00B4D280004B070BD64
:10BED0000223F25E96235B425A4362630021725E44
:10BEE00020005343A3630423F25E96235343E3638A
:10BEF00023681B6A9847E8E70EFCFFFFF8B50400CB
:10BF0000150006AA168807AA0F0012881900FDF767
:10BF10005BFE0D4BA764083323602300AA884C33D3
:10BF20009A80AA7920009A71084AE264AA68626538
:10BF30002A7B1A736A7B5A73AA7B1E829A73FFF755
:10BF400069FF2000F8BDC046746D02006C690200F4
:10BF500010B50400054B083303601C3007F0F3FAFA
:10BF60002000183007F0EFFA200010BDA06D02008D
:10BF7000FF23F0B52C4D8DB02B70002304006946D3
:10BF80000088009303F0B2F9002802D16B469B7839
:10BF90002B70264E3368DB68002B07D100232088E6
:10BFA0001A00190008F0EEFD0DB0F0BD2B78032B40
:10BFB000F4D81F4901A8FDF7C1F9336801A9DE686B
:10BFC00004A807F022FB04A9300008F039FD00277F
:10BFD000060004A807F0B7FABE421ED031002022A6
:10BFE000103104A80AF0A6FB30000AF065FB29789E
:10BFF00004ABC9005918082202A80AF09BFB20884C
:10C000000123082202A908F0BDFD0137002804D150
:10C010002088084A0C2108F0B3FD01A807F093FA24
:10C02000002FBBD0C0E7C04681200020FC240020A8
:10C0300045770200FFFF0000F0B5837991B004005E
:10C040005B071BD5FDF736F900232269801A994159
:10C05000994203D1F423FF3398420FD9A0680028F6
:10C0600008D0364B1D8809F056F8036815221B6A64
:10C07000290098470422A3799343A371A3799B07CE
:10C0800059D52F4D2B68DB68002B50D02D4B1B78DA
:10C09000032B4CD8294B2C491B8804A80193FDF78E
:10C0A0004DF92B6804A9DE6808A807F0AEFA08A9C4
:10C0B000300008F0C5FC070008A807F044FA02ABFE
:10C0C0009E1D08233200338006A9073B019808F023
:10C0D0005BFD002F08D039002022103108A80AF09B
:10C0E00029FB38000AF0E8FA164B32881B7806A9BB
:10C0F000DE0008AB9E1930000AF00DFB002813D0BB
:10C10000082206A930000AF015FB2B6804A9DD6897
:10C1100005A807F07AFA202308AA05A9280008F044
:10C1200095FC05A807F00FFA04A807F00CFA022204
:10C13000A3799343A37111B0F0BDC04678270020C6
:10C14000FC2400208120002045770200F7B5089EDE
:10C150000500152922D8012007008F40244C2742D2
:10C160001CD0E97FCC181F2C41DC69183418A1427F
:10C1700010D80021C8B2834204D9545C701884706E
:10C180000131F7E732789A183270EA7F9B18EB7723
:10C1900000202CE00878C8540139E8E73478013CE5
:10C1A000E4B2A34208D10023D9B28C42F0D9D05CCA
:10C1B000F11888700133F7E7EF7F0120FF183F1B6C
:10C1C0001F2F14DC0227A01C7F423618381B019059
:10C1D000E87F2F18BE4204D23078019FF055013617
:10C1E000F6E7041B023CEC77280008F017FDFEBDC3
:10C1F000FC002000F0B5040085B001930AAB1E8856
:10C200000BAB1B78451C02930EAB1B7817000393F6
:10C210000B78102203704B8A0131438228000AF008
:10C2200089FA268300260122019B67616383039BB1
:10C23000E6832377029B2000EB77A31CDA770C9B25
:10C240000C25636223000D9A28331A705E709E706D
:10C250002A0031002C300AF089FA2000064BE663F0
:10C26000A3632A00310040300AF080FA2000034B1B
:10C270002665E36405B0F0BD9F4B0200914B0200C0
:10C2800070B50D0008F047FF04000368002D09D1C8
:10C290005B699847FA2080006843074904F0B6FDBF
:10C2A000E08070BD9B6898478542F3D223682000E8
:10C2B0009B6898470500EDE771020000F0B50700A4
:10C2C0001600A1B002C704006B4918A81D0008F0B1
:10C2D000ECFC331E03D030000AF088FA83B201224E
:10C2E00004920022039202920232019200933200E1
:10C2F00018A93800FFF77EFF23006049583318A8BB
:10C30000079308F0D2FC2B1E03D028000AF06EFA27
:10C3100083B201220492002203920292023201921D
:10C3200000932A0018A90798FFF764FF23005449D7
:10C33000AC3318A8089308F0B8FC269B002B03D058
:10C3400018000AF053FA83B20122049200220392E9
:10C350000292023201920093269A18A90898FFF7D8
:10C3600049FF631CFF33474918A8099308F09DFC57
:10C37000279B002B03D018000AF038FA83B2012261
:10C3800004920022601C03920292023201920093F6
:10C39000279A18A9FF30FFF72DFF23005533FF33ED
:10C3A000394918A8099308F080FC289B002B03D07A
:10C3B00018000AF01BFA83B20122049200220392B1
:10C3C0000292023201920093289A18A90998FFF765
:10C3D00011FF2300A933FF332C4918A80A9308F052
:10C3E00064FC299B002B03D018000AF0FFF983B2EC
:10C3F00001220492002218AD0392029202320192AD
:10C400000093299A29000A98FFF7F4FE204B1B7825
:10C410000B93002B2CD1079B12971393089B0DAF06
:10C420001493631CFF331593099B1A4916930A9BB7
:10C430003800179308F039FC1D2149203B78102261
:10C440002B707B8A12AE6B8206ABC918C0180AF03B
:10C4500071F906232B750B9B2068AB83AE6108F046
:10C460005EFE036829001B6898470122084B1A707A
:10C47000200021B0F0BDC046292A0000242A000077
:10C48000252A0000272A0000262A0000282A00006A
:10C49000D42700200A18000070B5002504000B4BBB
:10C4A0008580083385710360C1601830FCF780FF18
:10C4B00020001C30FCF77CFF0123621CD377044A68
:10C4C000A560656120001460A37170BDA06D0200BD
:10C4D000FC240020FA2130B585B00500012302229A
:10C4E0008900684607F0D5F8074C2068002809D075
:10C4F00008F014FC2988054B2268198002239179E1
:10C500000B43937105B030BDFC2400207827002038
:10C5100010B50C0007290DD8806808F0FCFD064B0B
:10C52000195703685B6C9847431E9841034B404280
:10C53000184010BD0248FCE73D77020016FCFFFFE3
:10C5400017FCFFFFF0B5A44C0D00A54404000793B1
:10C550009AAB1B78A14909A804930692FCF7EEFE5A
:10C56000200029001C3007F058F8C020800001F09E
:10C57000F1FA08200AF0ABF80600002100F0AEFE48
:10C5800015ADA66000210C220EA80AF0EFF82B00D2
:10C590000EAA83CA83C3924B2900EB6000233000AC
:10C5A0002B6108F0A1FDA06808F0B5FD082200216C
:10C5B000059016A80AF0DAF814200AF088F8290085
:10C5C0000200884B1593C8C9C8C2874B059EC3603B
:10C5D0000023A43603613368002B00D0F5E03060FF
:10C5E000A06808F09CFD08220021060016A80AF0A9
:10C5F000BDF814200AF06BF87C4B1593030086CD30
:10C6000086C37B4BC36000230361336B002B00D0D8
:10C61000DDE03063A06808F07EFD082200210500FF
:10C6200016A80AF0A3F814200AF051F8714B15AEC1
:10C630001593030086CE86C36F4B9835C3600023E5
:10C6400003612B68002B00D0C3E02860012504ABF8
:10C650001B7C04AA2B4308A92800137408F096FA3F
:10C66000A06808F060FD036864495B6A9847A068A9
:10C6700008F059FD036862499B699847A06808F073
:10C6800052FD002302680093166804992A00B047FF
:10C69000049B002B0AD0200008F049FB032805DD8D
:10C6A000A06808F040FD0368DB6898470EA808F012
:10C6B000ACFA2F2004ABC01808F0A7FA362004AB60
:10C6C000C01808F0A2FA3D20042504ABC01808F0F9
:10C6D0009CFA0EAB0A93A06804AB5D7708F023FDCB
:10C6E00003680AA91B699847A06808F014FD03684D
:10C6F0000AA95B6D9847A06808F00DFD036800214A
:10C70000DB6D9847A06808F006FD036802219B6D69
:10C71000984700212000FFF7FBFE182009F0D7FF03
:10C72000A16800F055FA374B374A1B68A16803939C
:10C73000364B15A81B6800260293354B0CAF1B68BF
:10C740000193069B1B685B190093324B12681B68B0
:10C75000FFF7B4FD302009F0BAFF079AA16800F096
:10C76000F7FAA06808F0D7FC036839009B6A98477D
:10C77000294BBE80A0680C9308F0CDFC03683900FB
:10C78000DB6A98472900A06808F09BFA099A0921FA
:10C790009378A068521908F0A7FAA06808F0BBFCCB
:10C7A00032210671A068FFF76BFD04AB1B7FB3421B
:10C7B00004D0A06808F0AFFC08F06DFA09A806F0F4
:10C7C000C2FE95239B009D44F0BD036107E7036112
:10C7D0001FE7036139E7C046ACFDFFFF2A7802007E
:10C7E000AD4B0200D5C40100BB4B020071BF01007C
:10C7F000C94B0200F74B0200D74B02001DC80100D5
:10C8000051C80100F8240020F42400200820002052
:10C81000F02400200C2000200800100013B5062290
:10C820006846FCF79BFD094B1C68002C0AD0694642
:10C8300001A806F0EAFE200001A908F099FA01A873
:10C8400006F081FE684606F07EFE13BDFC24002043
:10C85000002373B501AE0C0031000500019302F016
:10C8600045FD002802D1B278064B1A70064B1868B5
:10C87000002806D061426141044BC9B21D8008F016
:10C880007FFA73BD81200020FC240020782700203F
:10C8900030B5284CA9B06A220D000DA8210009F07E
:10C8A00049FF0DA903A8FCF7B7FD03A906A806F0E8
:10C8B00020FF01230193013BFF3B00930533FF332E
:10C8C000642206A92800FDF76BFF06A806F004FF06
:10C8D000210019226A3106A809F02CFF0522002444
:10C8E000110006AB04A806F02BFF04A905A806F06A
:10C8F00000FF019400942300220005A92800FDF701
:10C90000B9FE05A806F0E8FE21002800FDF776FF35
:10C9100005340520FCF7E0FAFF2CF5D1FA20800061
:10C92000FCF7DAFA04A806F0D7FE03A806F0D4FE56
:10C9300029B030BDBA760200F0B59C4B95B0059297
:10C940001A68082304000391D16C06A80B43D36432
:10C950009749FCF7F3FC974907A8FCF7EFFC220086
:10C9600000250DAE30001C3206A906F065FE07AAB0
:10C97000310008A806F060FE300006F0E4FD631CFC
:10C98000DD77A06808F0C7FB03680BAF5B699847C9
:10C99000300008F03AF92B2004ABC01808F035F944
:10C9A000322004ABC01808F030F9392004ABC018AD
:10C9B00008F02BF98023DB00BB80A0680B9608F001
:10C9C000AAFB036839005B6D9847A06808F0A3FBD9
:10C9D000036829009B6D9847A06808F09CFB07003E
:10C9E00006000A371F222900380009F0BFFEFD7734
:10C9F000300008F047F90621A06808F062F9089AAB
:10CA000009219378A068043208F06EF9A06808F054
:10CA100082FBC8210571A068FFF732FCA06808F00E
:10CA20007AFBFF272E000581A06808F074FB08F050
:10CA300032F90398FDF722FD2000FCF7B3F90399C2
:10CA40002000FFF725FF0399200008F0ACF90495BA
:10CA5000012563691D402DD0574909A8FCF75AFDEF
:10CA600009A90AA806F045FE00220AA913000192AE
:10CA700000920398FDF7FEFD0AA806F02DFE049B28
:10CA8000002B42D1043F282F41DD0025FE2F00DC82
:10CA9000049D059807F024F8002806D00123626958
:10CAA0009A431300042213436361002609A806F089
:10CAB00013FE049504226369134233D0FF210398C7
:10CAC000C826FDF79BFE0025B600A36902229B5EE7
:10CAD000AB4222DD200029B2183006F0C3FD00234E
:10CAE000010003981A007430FCF764FD3000FCF775
:10CAF000F3F9039807F0FBFBC820FCF7EDF90222DD
:10CB00006369134209D10135DFE70437BBE70398B6
:10CB100007F0EDFB002FBCDDBAE7FA208000FCF740
:10CB2000DBF90026022365691D421CD006331D4037
:10CB300024D0224909A8FCF7EDFC09A90AA806F0AF
:10CB4000D8FD00220AA90192009213000398FDF774
:10CB500091FD0AA806F0C0FD1948FCF7BDF909A827
:10CB600006F0BAFD174E6420FCF7B6F9164B0136F5
:10CB70009E4200DC6CE706F091FB69E7134909A8C7
:10CB8000FCF7C8FC09A90AA806F0B3FD2B002A008F
:10CB90000AA9019500950398FDF76CFD0AA806F017
:10CBA0009BFD09A806F098FDDDE7C0468024002023
:10CBB000517702006177020063770200A8770200D4
:10CBC000983A00008C0A00008B0A0000E57702000A
:10CBD0000022594BF0B50833060003600F00100027
:10CBE000A9B0B1600BAB991801324870102AFAD184
:10CBF0000F3A524C1A700E32105D991A0874013AAD
:10CC0000FAD2997B5A7B09020A4331000C31039115
:10CC100025211B7813AD2B7002ABC918452302A840
:10CC20001B186A821800102209F084FD039B6421FE
:10CC30006B610123002402AA2B7752181993093340
:10CC400013701DAB1C706D2302AA9B181C706E2301
:10CC500021009B181EA80C22EC836C621C7009F04A
:10CC600085FD374B0C22210023A8AB63EC6309F050
:10CC70007DFD344B02AAEB6446239B180322DA772E
:10CC800022002C650595347306AD2B1901345A70BA
:10CC9000102CFAD101232C482B700E33195CEA1AA0
:10CCA0001174013BFAD211212520AA7B6B7B120261
:10CCB0000BAC13432A78638202ABC9182270C018E8
:10CCC000102209F037FD0123237505ABA361002372
:10CCD0003800A38308F023FA036821001B689847F3
:10CCE00013ABDB8BB068B38208F019FA002203683B
:10CCF0000092B18A039ADC680123A047B06808F06B
:10CD00000EFA0700142009F0E2FC002201230400BF
:10CD10000261069240C008322900079309F00AFD1B
:10CD20000A4BE360BB69002B03D13000BC6129B022
:10CD3000F0BD2361F9E7C046B86D02003E780200FD
:10CD40009F4B0200914B02004E780200074E0200FA
:10CD5000F0B500260400724BDDB00833036081603B
:10CD6000C2608680867132006E4947A808F0EBF8F1
:10CD700023001433012504270893122300970495F8
:10CD80000193089A330047A9039602961DA8FFF75E
:10CD900031FA3200644947A808F0D5F80C23220084
:10CDA0000097103215AF0495019347A933000396FD
:10CDB000029632A8FFF71EFA32005C49380008F0EC
:10CDC000C2F821001C310991042308210495019126
:10CDD000009339003300099A0396029647A8FFF79B
:10CDE00009FA32005249380008F0ADF8542009F031
:10CDF0006EFC210012220423183107910495019240
:10CE000000930A0033003900039602960690FFF75C
:10CE1000F1F9069A474B1000A262D4620AA90822CF
:10CE200030300A930B9609F085FC434B069A09991A
:10CE300093632932157026610422E661079809F090
:10CE400079FC04220799089809F074FC66220323F0
:10CE500004A95218D377BA225218D37787225200E6
:10CE60005218D377069A35490232D3771DAA0C920D
:10CE700032AA0D9247AA0E92069AA6850F9210A882
:10CE8000320008F060F83021452004AA52181378C7
:10CE9000123104AA3B705218138811397B8204ABFB
:10CEA0001022C918C01809F045FC04230CADA06875
:10CEB0003B75BD61BE8308F032F9036839001B6819
:10CEC0009847822204AB9B181B885432238404ABFE
:10CED0009B181B885432A38404AB9B181B88A06842
:10CEE000638408F01CF90700142009F0F0FB05002A
:10CEF000134B0661082210C010A91093119609F077
:10CF000019FC104BEB60BB69B34206D1BD61200038
:10CF1000FBF748FF20005DB0F0BD2B61F6E7C0468F
:10CF2000C46D02007E7802005E7802006E78020016
:10CF30008E780200194F0200854E02009E78020092
:10CF4000B1CF0100AF4E0200F0B504000E00150095
:10CF500085B01F000CAB1B881030019306F08FFBCF
:10CF600026806580182009F0B2FB02AE0500330070
:10CF70000AAA03CA03C32F602800082700213A0029
:10CF80000C3009F0F3FB3A003100281D09F0D2FB08
:10CF9000064B02226B61200000230199A5600A4321
:10CFA000E360A2802362636205B0F0BDD94E020047
:10CFB000F0B50B898DB00593CB68050004934B88C1
:10CFC000828C9A420ED1049C049B059A9B181B1BD1
:10CFD000032B39DD62882188012308A806F059FB5C
:10CFE0000434F1E7428C9A422ED1049C049B059AAA
:10CFF0009B181B1B032B27DD23882820069363889F
:10D00000EF680793114B08930023099309F05FFB26
:10D01000C0236A460600029308AB03CB03C22B0071
:10D020000699079A3000FFF78FFF3B6831005B6875
:10D0300038009847002805D0300006F03AFA300052
:10D0400009F03AFB0434D1E70DB0F0BD974F020070
:10D0500070B5040090B0806807F098FF022101408D
:10D060001AD1A38D002B17D00C4B6A4604931023C2
:10D07000E568A1850591029304AB41CB41C20A004A
:10D08000230006A8FFF760FF2B6806A99B6828000D
:10D09000984706A806F00DFA10B070BD974F020031
:10D0A000002815D0006041608260C3600461456162
:10D0B0008661C761444604624C46446254468462B9
:10D0C0005C46C462644604636E4646637446846389
:10D0D000002A06D0C46B043C043A25681560B442AB
:10D0E000F9D18C6BA6464E6BB546002B06D0CC6BA7
:10D0F000043C043B1D682560B442F9D10C6BA44686
:10D10000CC6AA3468C6AA2464C6AA1460C6AA04629
:10D11000CF698E694D690C69CB688A68086849686F
:10D120007047006041608260C36004614561866150
:10D13000C761444604624C464462544684625C467D
:10D14000C462644604636E46466374468463C46B7B
:10D15000043C043925680D60B442F9D1C769866979
:10D16000456904697047006041608260C360046182
:10D1700045618661C761444604624C464462544638
:10D1800084625C46C462644604636C4644637446CD
:10D19000846304697047846BA646446BA546046BA0
:10D1A000A446C46AA346846AA246446AA146046AA5
:10D1B000A046C769866945690469C36882680068D2
:10D1C0004168704710B5041E0CD009F00FFB431ED8
:10D1D000E3189C4208D222781978013B21705A70DA
:10D1E0000134F6E7014810BD0020FCE717FCFFFF03
:10D1F000F0B585B002900C1E2AD00023C217161A73
:10D2000056400193019B30005D1C63190A215F1E8B
:10D21000039303F06BFF49423031397030000A212B
:10D2200003F07EFE47420600002F0FD1029B002B29
:10D2300004DA2D23019D039A023513700023200088
:10D240006355FFF7BFFF380005B0F0BD0195D9E782
:10D25000004FF8E717FCFFFF0268084B406810B565
:10D26000C018C000101803009A4205D81C688C42F0
:10D2700002D31800083BF7E710BDC046FFFFFF1FB1
:10D2800070B5002817D1114D2E68002E11D108302D
:10D2900009F01DFA066046600D4E04003368002B4D
:10D2A00002D108F073F9306023682C609B00F358BA
:10D2B0006360286870BD0122064907480B68134067
:10D2C000F8D1026043600A60F4E7C04604250020FC
:10D2D000102500200025002008250020002370B51F
:10D2E00004000160436099420AD1064D2B68002B6F
:10D2F00002D108F04BF9286023689B00EB5863606B
:10D30000200070BD10250020436810B50400002BDC
:10D3100002D1044809F0E9F8606803681B6998477E
:10D3200010BDC046AE780200436810B50400002B63
:10D3300002D1044809F0D9F8606803689B699847EE
:10D3400010BDC046AE780200436810B50400002B43
:10D3500002D1044809F0C9F8606803685B6A98471D
:10D3600010BDC046AE78020000487047FFFF0000C5
:10D37000F0B597B00593036807AD1B68049103935C
:10D3800011002B00060091C991C30024D36821002D
:10D390000C220CA8EB602C6109F0E8F922000B4B81
:10D3A00010940F9311AB1C70191901344A70102C92
:10D3B000FAD15A820193059B2A00009304990CAB81
:10D3C0003000039CA04717B0F0BDC0464552020094
:10D3D00070B5FC30046C0500002C0DD1242009F040
:10D3E00076F9064B44608361054B8460C460046138
:10D3F0004461C46103602864286C70BDB06E020093
:10D40000986F020070B5FC30C56B0400002D11D17F
:10D41000342009F05CF9084B85604360074B456197
:10D420000361074B0562C361064BC5628362064B0D
:10D43000E0630360E06B70BDE06E0200D06E02003E
:10D44000406F0200506F0200606F02007FB50379E9
:10D450001548002B22D0154E154C33782000002B98
:10D460001CD102AD280007F0CAFE002810D16B883D
:10D47000592B0DD12B78AA88D91F012910D80092D9
:10D480000C4A2021200005F03FFB0123337004E00B
:10D4900020220949200009F0B0F9200004B070BD35
:10D4A0000092064AEDE7C046D1780200F527002039
:10D4B000D5270020F3780200EB78020010790200F3
:10D4C00010B50400024B08C007F079FF200010BD22
:10D4D000D06E020010B50400024B08C007F084FFB4
:10D4E000200010BDE06E0200064B70B50400036022
:10D4F0004068002804D0056909F0DEF82800F8E744
:10D50000200070BDC06E0200064B70B504000360C1
:10D510004068002804D0056909F0CEF82800F8E733
:10D52000200070BDF06E0200064B70B50400036071
:10D530004068002804D0056909F0BEF82800F8E723
:10D54000200070BD006F0200064B70B50400036040
:10D550004068002804D0056909F0AEF82800F8E713
:10D56000200070BD406F0200064B70B504000360E0
:10D570004068002804D0056909F09EF82800F8E703
:10D58000200070BD506F0200064B70B504000360B0
:10D590004068002804D0056909F08EF82800F8E7F3
:10D5A000200070BDE46D0200064B70B504000360FE
:10D5B0004068002804D0056909F07EF82800F8E7E3
:10D5C000200070BDF46D0200064B70B504000360CE
:10D5D0004068002804D0056909F06EF82800F8E7D3
:10D5E000200070BD046E0200064B70B5040003609D
:10D5F0004068002804D0056909F05EF82800F8E7C3
:10D60000200070BD146E0200064B70B5040003606C
:10D610004068002804D0056909F04EF82800F8E7B2
:10D62000200070BDB06E020070B5FC30046C0500C7
:10D63000002C0DD1242009F04AF8064B4460836188
:10D64000054B8460C46004614461C4610360286464
:10D65000286C70BDB06E0200986F0200104B10B5C0
:10D66000083303600F4B0400C36080230E4A5B0045
:10D67000C250C018FCF7D8FD20000C4BB830E36056
:10D68000FFF7B2FF2000AC30FFF79EFF2000A03074
:10D69000FFF78AFF20006C30FFF776FF200010BDF7
:10D6A000C46F02003C70020078710200246E020018
:10D6B000F8B505000400AC356B68AB60A8680028BD
:10D6C00007D0C36821009847AB68002BF4D01B69D2
:10D6D000F3E72500B0352868002804D0066908F073
:10D6E000EBFF3000F8E72200FC2128605832137865
:10D6F0000B40137023005C33187020000A3007F0D1
:10D700003CFF2000343007F038FF606E002804D062
:10D71000056908F0D1FF2800F8E725009835606614
:10D720002868002804D0066908F0C6FF3000F8E732
:10D730002600A43628603568002D05D02F69280002
:10D7400008F0BAFF3D00F7E72000356029000C2201
:10D750006C3009F00BF82000074BE567A367290040
:10D760000C22803009F002F82300044A8C339034F4
:10D7700028001A602560F8BD295202001B520200E1
:10D78000444AF0B50600C260A022434B1636083367
:10D7900003600100002342820400320085B003715F
:10D7A0008360037483823531137001329142FBD15F
:10D7B000802580222000AD00D201F377358411004E
:10D7C00000933830002300F035FF23002100403360
:10D7D00003931A002B0000255F31157001328A4235
:10D7E000FBD1039AFC21D577220060321380137994
:10D7F00020000B401371230068331D70274B2567F1
:10D80000E3660C220021783008F0B0FF23002700E7
:10D8100088331D60224B0837FB67843700210C22B8
:10D82000380008F0A3FF1F4B1F4AFB602300A03302
:10D830003D611A601D4A5D60DA601D4A1D619A6192
:10D84000DD61300007F099FE039807F096FE194B52
:10D85000601CE3602300C4331D705D709D70FF3059
:10D8600002F0F6FC8C235B00E55023001933FF33F4
:10D870005D618023104A5B00E250230001222000FA
:10D88000FE3352425A86023B9D63DD631D6405B040
:10D89000F0BDC046246E0200C46F0200E46D0200B9
:10D8A000295202001B520200F46D0200046E0200B5
:10D8B000146E02003C7002007871020070B5074CD3
:10D8C0002368002B07D1A020400008F000FF0500CE
:10D8D000FFF756FF2560206870BDC0461425002064
:10D8E00070B50C220D000021040008F03FFF00235A
:10D8F0002361024B25602000E36070BD37520200B7
:10D9000070B500250400254B85800360244BC5605D
:10D910008360244B85614361234B45620362234B43
:10D920000563C362224BC563836329004430FFF75C
:10D93000D7FF200029005830FFF7D2FF2000290030
:10D940006C30FFF7CDFF1B4B220023602300803299
:10D95000F83320C29342FCD126001D00E936FF3681
:10D96000280008220021083508F000FFAE42F7D158
:10D970008E2300229B00E11804C6B142FCD18E2305
:10D9800000219B00E2540C4B0C4AE318A2181980AA
:10D9900002339A42FBD1200070BDC046106F0200D6
:10D9A000C06E0200D06E0200E06E0200F06E020057
:10D9B000006F02000C7002003A02000062020000D8
:10D9C00010B5040002F0C6F9034B1B68002B01D010
:10D9D0002000984710BDC0461C250020F0B58BB034
:10D9E000050001F0C3FA0020FFF768FF0368070095
:10D9F0001B6998473B6804009B69380098473B685F
:10DA000006005B6A380098470300288810380B2806
:10DA100061D803F0F1F9063D6060605A60606066AD
:10DA20006078AF882000390008F0CAF922006B7BCB
:10DA3000583201931378A8799C46022361460B4320
:10DA4000137004AB1F80012304AA93701300D070DD
:10DA5000019AE91D9A722B000622163305A8099334
:10DA600008F068FE29000B2004AB06220E31C01816
:10DA700008F060FE94346368A360A06800282AD090
:10DA8000C36804A99847A368002BF4D01B69F3E787
:10DA900020002F49AF8808F093F922000220583265
:10DAA0001378A9798343137004AB1F809970A03455
:10DAB0006368A360A06800280DD0C36804A99847D4
:10DAC000A368002BF4D01B69F3E75B69A888A91D44
:10DAD000002B00D098472900300007F0B9FE0BB0AA
